:020000040800F2
:1000000000200020290C0008610700086307000891
:1000100000000000000000000000000000000000E0
:10002000000000000000000000000000650700085C
:1000300000000000000000006707000869070008D2
:10004000790C0008790C0008790C0008790C00087C
:10005000790C0008790C0008790C0008790C00086C
:10006000790C0008790C0008790C0008790C00085C
:10007000790C0008790C0008790C0008790C00084C
:10008000790C0008790C000800000000790C0008C9
:10009000790C000861060008790C0008790C00084A
:1000A000790C0008790C0008790C0008790C00081C
:1000B000790C000800000000790C00080000000026
:1000C000002934D00123002210B488422CD301240B
:1000D0002407A14204D2814202D209011B01F8E7A0
:1000E000E400A14204D2814202D249005B00F8E759
:1000F000884201D3401A1A434C08A04202D3001B85
:100100005C0822438C08A04202D3001B9C082243B7
:10011000CC08A04202D3001BDC082243002803D0F5
:100120001B0901D00909E3E7100010BC704701B5B5
:10013000002000F00BF802BD0029F8D003B5FFF74E
:10014000C1FF0EBC4243891A1847C0467047C046DB
:1001500010B5064C2378002B07D1054B002B02D09D
:10016000044800E000BF0123237010BD0C000020F4
:1001700000000000D40C0008044B10B5002B03D085
:100180000349044800E000BF10BDC0460000000065
:1001900010000020D40C0008F0B5DE4657464E464D
:1001A0004546E0B58BB004AC18220021200000F0D9
:1001B00064FD584B5A698021C9030A435A615A6940
:1001C0000A400392039A5A69802189020A435A61BC
:1001D0005A690A400292029A5A698021C9020A4366
:1001E0005A615B690B400193019B4B4E0127B7623B
:1001F00002239B46B36202339A46B36204339946A4
:10020000B3620833B3622022B2624021B16280201F
:10021000B062049727619025ED05A84621002800CB
:1002200000F0A7FA5D46049500256560276121006E
:10023000404600F09EFA5346049365602761210012
:10024000404600F096FA4B46049365602761210012
:10025000404600F08EFA04976760A560E56025616E
:100260002100300000F085FA5B4604936760A560CA
:10027000E56025612100300000F07BFA53460493CD
:100280006760A560E56025612100300000F071FA2B
:100290004B4604936760A560E5602561210030004E
:1002A00000F067FA102304936760A560E56025619C
:1002B0002100300000F05DFA202204926760A56002
:1002C000E56025612100300000F053FA40210491DF
:1002D0006760A560E56025612100300000F049FA03
:1002E000802004906760A560E560256121003000F2
:1002F00000F03FFA80239B00049365602561210094
:10030000300000F036FA0BB0F0BCBB46B246A9464E
:10031000A046F0BD001002400004004882B0430037
:1003200018180023019304E0C046C046019B013326
:100330000193019B8342F7D302B0704770B514203C
:10034000FFF7ECFF0A4CA36980252D022B43A36124
:100350001420FFF7E3FFA26980231B061343A36168
:100360001420FFF7DBFFA3691D43A56170BDC046E4
:100370000008004810B50400454A91698023DB015C
:100380000B43936143B2002B46DB9022D205916967
:1003900080231B060B439361630645D59022D2054B
:1003A000916980235B010B439361A30644D5394ACD
:1003B000916980239B000B439361E30643D5354A43
:1003C000916980235B000B439361FFF7B7FF23071D
:1003D00040D59022D205916980231B020B43936183
:1003E00063073FD59022D205916980235B010B43BF
:1003F0009361A3073ED5274A916980239B000B4355
:100400009361E4073DD5234A916980235B000B4348
:100410009361FFF793FF10BD9022D205916980236D
:100420001B020B439361B7E79022D20591698023A9
:100430005B050B439361B8E7164A916980239B04DF
:100440000B439361B9E7134A916980235B040B4323
:100450009361BAE79022D205916980231B060B4372
:100460009361BDE79022D205916980235B050B4320
:100470009361BEE7074A916980239B040B43936114
:10048000BFE7044A916980235B040B439361C0E793
:10049000000800480004004870B50500002403E08F
:1004A000FFF768FF0134E4B2285D0028F8D170BD81
:1004B00010B50400474A91698023DB050B43936123
:1004C00043B2002B49DB9022D205916980231B06A1
:1004D0000B439361630648D59022D205916980232E
:1004E0005B010B439361A30647D53B4A9169802387
:1004F0009B000B439361E30646D5374A91698023FD
:100500005B000B439361FFF719FF230743D590224C
:10051000D205916980231B020B439361630742D587
:100520009022D205916980235B010B439361A3075D
:1005300041D5294A916980239B000B439361E407CD
:1005400040D5254A916980235B000B439361FFF7F7
:10055000F5FE2248FFF7E2FE10BD9022D205916918
:1005600080231B020B439361B4E79022D20591696B
:1005700080235B050B439361B5E7174A916980239C
:100580009B040B439361B6E7134A916980235B0494
:100590000B439361B7E79022D205916980231B0634
:1005A0000B439361BAE79022D205916980235B05E2
:1005B0000B439361BBE7084A916980239B040B437B
:1005C0009361BCE7044A916980235B040B43936108
:1005D000BDE7C0460008004800040048B80B000012
:1005E00010B51B4B5969802292020A435A6159691E
:1005F0008022D2020A435A615969802212030A43B7
:100600005A619022D20511688223DB050B431360E7
:10061000104A1168A023DB020B4313600E4A1168D5
:10062000A023DB050B4313600C48FFF777FE332054
:10063000FFF73EFF3220FFF73BFF0C20FFF738FFAC
:100640002820FFF735FF0120FFF732FF10BDC0461D
:100650000010024000040048000800483075000007
:1006600010B5024800F07FF910BDC04628000020F8
:1006700072B6FEE710B50C480C4B03600C4B4360A0
:10068000002383600B4AC26003614361803383614E
:1006900000F068FA002804D1074B802292031A6008
:1006A00010BDFFF7E5FFC0462800002000440140D0
:1006B0003F1F0000E703000000E100E010B51A4A08
:1006C000136801218B431360174B1B68DB07FBD4B6
:1006D000164A136801210B431360144B1B689B07D8
:1006E000FBD5124B1A68F8218A4378390A431A60FD
:1006F0005A6870318A435A605A680D490A405A60F4
:100700005A6803218A435A60084B5B680C221A42DC
:10071000FAD1084800F082FA032000F087F8002898
:1007200000D110BDFFF7A4FF0020024000100240DE
:10073000FFF8FFFF00127A0010B500F09FF8FFF7F6
:10074000BDFFFFF729FDFFF795FFFFF749FF0120E8
:10075000FFF7AEFE0148FFF79FFEFEE7EC0C000836
:10076000FEE7FEE77047704710B500F097F810BD40
:100770007047F0B5002216E00B699C46C4682B0058
:100780006B435E00F618F743B44366465E4334435A
:10079000C4604C68022C26D04D6804683C406B4312
:1007A0002343036001320C682300D3403BD0012374
:1007B000934025001D401C42F4D04B68013B012BA7
:1007C000DAD88F6883682C006C4366003619B3430F
:1007D0007C43234383600E68CC684368B34374430F
:1007E00023434360C8E7FF2D0DD84C69A446066A31
:1007F0001C006C436C4325012D1BAE4365466C43C6
:1008000034430462C8E74C69A446466A2D0A2C00AA
:100810006C436C436C4325012D1BAE4365466C4312
:1008200034434462B8E70020F0BD000010B5040076
:100830000F4B1978FA208000FFF742FC01000D4BA6
:100840001868FFF73DFC00F085F800280DD1032C57
:1008500001D901200AE0013000222100404200F0CD
:1008600075F8054B1C60002000E0012010BDC0465B
:1008700004000020000000200800002010B5064AF7
:10088000136810210B4313600320FFF7CFFF00F024
:1008900097F9002010BDC04600200240034A1168AD
:1008A000034B1B785B1813607047C0467000002034
:1008B0000400002070B5002811DB8308134DC033FD
:1008C0009B005C5903221040C000FC321600864099
:1008D000B44389010A40824022435A5170BD0F231C
:1008E0000340083B9B0806339B00094A9446634437
:1008F0005C6803221040C000FC3215008540AC4308
:1009000089010A40824022435A60E7E700E100E0A3
:1009100000ED00E0013880235B0498420FD2094AC1
:1009200050600948036A1B021B0AC02109060B43D9
:100930000362002393600733136000207047012097
:10094000FCE7C04610E000E000ED00E010B5FFF766
:10095000B1FF10BD10B5FFF7DDFF10BD7047704748
:1009600070477047704710B50400026813699B0711
:100970000FD5D3689B070CD503235B421361043367
:10098000037703689B699B0763D0FFF7E9FF0023A8
:100990002377226813695B0712D5D3685B070FD5ED
:1009A00005235B4213610733237723689A69C023C9
:1009B0009B001A4253D02000FFF7D2FF0023237779
:1009C000226813691B0710D5D3681B070DD50923AF
:1009D0005B4213610D3323772368DB699B0745D0A6
:1009E0002000FFF7BDFF0023237722681369DB0691
:1009F00012D5D368DB060FD511235B42136119337F
:100A000023772368DA69C0239B001A4235D020007F
:100A1000FFF7A6FF0023237722681369DB0702D5BF
:100A2000D368DB0730D4226813691B0602D5D3686C
:100A30001B0630D4226813695B0602D5D3685B06B7
:100A400030D4226813699B0602D5D3689B0630D444
:100A500010BDFFF784FF2000FFF783FF97E720001A
:100A6000FFF77DFF2000FFF77CFFA7E72000FFF7DF
:100A700076FF2000FFF775FFB5E72000FFF76FFF57
:100A80002000FFF76EFFC5E702235B4213612000E1
:100A9000FFF764FFC7E781235B421361200000F08A
:100AA0008EF8C7E741235B4213612000FFF75AFF2E
:100AB000C7E721235B421361200000F07FF8C7E7FE
:100AC0000368214A904206D08022D205904202D08B
:100AD0001E4A904203D1702293434A6813431A4A34
:100AE000904212D08022D20590420ED0174A9042F6
:100AF0000BD0174A904208D0164A904205D0164AA9
:100B0000904202D0154A904203D1154A1A40CB6850
:100B10001343802293434A69134303608B68C36283
:100B20000B688362084B984208D00A4B984205D064
:100B3000094B984202D0094B984201D10B690363DB
:100B4000012343617047C046002C0140000400406F
:100B500000200040004001400044014000480140A6
:100B6000FFFCFFFF70B5041E26D03D23C35C002BA5
:100B70001CD03D2502236355210001C9FFF7A0FFCA
:100B800001234622A354083AA3540132A35401324C
:100B9000A3540132A3540132A3540132A3540132AD
:100BA000A3540132A3546355002070BD3C3300228E
:100BB000C25400F01DF8DCE70120F6E770477047EB
:100BC00082B00A4B996901221143996199690A40DF
:100BD0000092009ADA69802149050A43DA61DB69EB
:100BE0000B400193019B02B07047C04600100240C9
:100BF00082B00268074B9A4201D002B07047064BA0
:100C00009A69802189020A439A619B690B4001938A
:100C1000019BF2E70044014000100240014B1860C4
:100C20007047C046000000200D488546FFF7A0FD34
:100C30000C480D490D4A002302E0D458C450043337
:100C4000C4188C42F9D30A4A0A4C002301E013600D
:100C50000432A242FBD300F019F8FFF76DFDFEE766
:100C600000200020000000200C000020FC0C0008E8
:100C70000C00002074000020FEE70300821893425D
:100C800000D1704719700133F9E7000070B50026F4
:100C90000C4C0D4D641BA410A64209D1002600F097
:100CA00019F80A4C0A4D641BA410A64205D170BD68
:100CB000B300EB5898470136EEE7B300EB5898477E
:100CC0000136F2E7F40C0008F40C0008F80C0008F8
:100CD000F40C0008F8B5C046F8BC08BC9E46704746
:0C0CE000F8B5C046F8BC08BC9E46704742
:080CEC0074657374696E670002
:040CF400790100087A
:040CF800510100089E
:0C0CFC0000127A0001000000040000005B
:0400000508000C29BA
:00000001FF
