:020000040800F2
:100000000020002095100008910B0008930B0008B9
:1000100000000000000000000000000000000000E0
:10002000000000000000000000000000950B000828
:100030000000000000000000970B0008990B00086A
:10004000E5100008E5100008E5100008E5100008BC
:10005000E5100008E5100008050A0008E510000892
:10006000E5100008E5100008E5100008E51000089C
:10007000E5100008E5100008E5100008E51000088C
:10008000E5100008E510000800000000E510000879
:10009000E5100008B9060008E5100008E5100008A2
:1000A000E5100008E5100008E5100008E51000085C
:1000B000E510000800000000E51000080000000046
:1000C000002934D00123002210B488422CD301240B
:1000D0002407A14204D2814202D209011B01F8E7A0
:1000E000E400A14204D2814202D249005B00F8E759
:1000F000884201D3401A1A434C08A04202D3001B85
:100100005C0822438C08A04202D3001B9C082243B7
:10011000CC08A04202D3001BDC082243002803D0F5
:100120001B0901D00909E3E7100010BC704701B5B5
:10013000002000F00BF802BD0029F8D003B5FFF74E
:10014000C1FF0EBC4243891A1847C0467047C046DB
:1001500010B5064C2378002B07D1054B002B02D09D
:10016000044800E000BF0123237010BD10000020F0
:100170000000000040110008044B10B5002B03D014
:100180000349044800E000BF10BDC0460000000065
:10019000140000204011000810B5174A516980234F
:1001A0009B020B4353619023DB051A68C0218A43ED
:1001B0001A60DA688A43DA60DA6840200243DA605B
:1001C0000E4B9A680E490A409A609A689A600D4BE5
:1001D0009A6808210A439A601A680A431A600A4B0F
:1001E000C124A4001959094A11408022D2030A43AC
:1001F0001A51186010BDC0460010024000000140B6
:10020000FF0FFFFF0004014000E100E0FFFF00FFDF
:10021000F0B5DE4657464E464546E0B58BB004ACD9
:1002200018220021200000F05EFF504B5A69802107
:10023000C9030A435A615A690A400392039A5A69E8
:10024000802189020A435A615A690A400292029A3D
:100250005A698021C9020A435A615B690B400193C4
:10026000019B434E0127B76202239A46B3620233D1
:100270009846B36204339946B3620833B3622022CE
:10028000B2624021B1628020B0620497276190255C
:10029000ED05AB462100280000F083FC454604959F
:1002A0000025656027612100584600F07AFC04971C
:1002B0006760A560E56025612100300000F071FCF9
:1002C000534604936760A560E56025612100300016
:1002D00000F067FC434604936760A560E560256114
:1002E0002100300000F05DFC4B4604936760A56080
:1002F000E56025612100300000F053FC10230493D9
:100300006760A560E56025612100300000F049FCD0
:10031000202204926760A560E5602561210030001D
:1003200000F03FFC402104916760A560E560256115
:100330002100300000F035FC802004906760A5604B
:10034000E56025612100300000F02BFC80239B003C
:100350000493656025612100300000F022FC0BB0A1
:10036000F0BCBB46B246A946A046F0BD0010024014
:100370000004004882B0430018180023019304E0F1
:10038000C046C046019B01330193019B8342F7D3D2
:1003900002B0704770B51420FFF7ECFF0A4CA36958
:1003A00080252D022B43A3611420FFF7E3FFA269F0
:1003B00080231B061343A3611420FFF7DBFFA3690F
:1003C0001D43A56170BDC0460008004810B504007B
:1003D000454A91698023DB010B43936143B2002BB3
:1003E00046DB9022D205916980231B060B43936163
:1003F000630645D59022D205916980235B010B43AA
:100400009361A30644D5394A916980239B000B432D
:100410009361E30643D5354A916980235B000B4322
:100420009361FFF7B7FF230740D59022D20591696A
:1004300080231B020B43936163073FD59022D205B3
:10044000916980235B010B439361A3073ED5274A43
:10045000916980239B000B439361E4073DD5234AB8
:10046000916980235B000B439361FFF793FF10BDFD
:100470009022D205916980231B020B439361B7E759
:100480009022D205916980235B050B439361B8E705
:10049000164A916980239B040B439361B9E7134A81
:1004A000916980235B040B439361BAE79022D205E4
:1004B000916980231B060B439361BDE79022D2050F
:1004C000916980235B050B439361BEE7074A9169FD
:1004D00080239B040B439361BFE7044A9169802307
:1004E0005B040B439361C0E7000800480004004828
:1004F00070B50500002403E0FFF768FF0134E4B2A3
:10050000285D0028F8D170BD10B50400474A9169F4
:100510008023DB050B43936143B2002B49DB902220
:10052000D205916980231B060B439361630648D56E
:100530009022D205916980235B010B439361A3064E
:1005400047D53B4A916980239B000B439361E306A7
:1005500046D5374A916980235B000B439361FFF7CF
:1005600019FF230743D59022D205916980231B02EE
:100570000B439361630742D59022D2059169802392
:100580005B010B439361A30741D5294A91698023FD
:100590009B000B439361E40740D5254A9169802372
:1005A0005B000B439361FFF7F5FE2248FFF7E2FE85
:1005B00010BD9022D205916980231B020B439361E9
:1005C000B4E79022D205916980235B050B439361C8
:1005D000B5E7174A916980239B040B439361B6E703
:1005E000134A916980235B040B439361B7E7902220
:1005F000D205916980231B060B439361BAE79022D1
:10060000D205916980235B050B439361BBE7084AE0
:10061000916980239B040B439361BCE7044A916971
:1006200080235B040B439361BDE7C046000800488C
:1006300000040048B80B000010B51B4B596980221C
:1006400092020A435A6159698022D2020A435A61CE
:100650005969802212030A435A619022D205116817
:100660008223DB050B431360104A1168A023DB02D1
:100670000B4313600E4A1168A023DB050B43136084
:100680000C48FFF777FE3320FFF73EFF3220FFF7DD
:100690003BFF0C20FFF738FF2820FFF735FF012034
:1006A000FFF732FF10BDC0460010024000040048B2
:1006B000000800483075000010B5024800F089FBC2
:1006C00010BDC0462C00002010B5154C01220121A0
:1006D000200000F073FB01220221200000F06EFBDD
:1006E00001220421200000F069FB002208212000E3
:1006F00000F064FB01221021200000F05FFB0022CB
:100700002021200000F05AFB00224021200000F0B0
:1007100055FB01228021200000F050FB10BDC04697
:100720000004004810B5154C01220121200000F002
:1007300045FB01220221200000F040FB00220421A1
:10074000200000F03BFB01220821200000F036FBD6
:1007500000221021200000F031FB00222021200087
:1007600000F02CFB01224021200000F027FB00229A
:100770008021200000F022FB10BDC046000400488C
:1007800010B5154C01220121200000F017FB0022BA
:100790000221200000F012FB01220421200000F0C1
:1007A0000DFB00220821200000F008FB0022102190
:1007B000200000F003FB01222021200000F0FEFABF
:1007C00000224021200000F0F9FA002280212000C0
:1007D00000F0F4FA10BDC0460004004810B5154CF6
:1007E00000220121200000F0E9FA0122022120006C
:1007F00000F0E4FA00220421200000F0DFFA0022D9
:100800000821200000F0DAFA01221021200000F077
:10081000D5FA00222021200000F0D0FA0022402149
:10082000200000F0CBFA00228021200000F0C6FA60
:1008300010BDC0460004004810B5154C012201212E
:10084000200000F0BBFA00220221200000F0B6FADE
:1008500000220421200000F0B1FA0122082120002A
:1008600000F0ACFA00221021200000F0A7FA0022CC
:100870002021200000F0A2FA00224021200000F0F8
:100880009DFA00228021200000F098FA10BDC04699
:100890000004004810B5154C00220121200000F092
:1008A0008DFA00220221200000F088FA01220421A2
:1008B000200000F083FA00220821200000F07EFAD8
:1008C00000221021200000F079FA002220212000CF
:1008D00000F074FA00224021200000F06FFA00229C
:1008E0008021200000F06AFA10BDC04600040048D4
:1008F00010B5154C00220121200000F05FFA012202
:100900000221200000F05AFA00220421200000F009
:1009100055FA00220821200000F050FA0022102190
:10092000200000F04BFA00222021200000F046FABF
:1009300000224021200000F041FA00228021200006
:1009400000F03CFA10BDC0460004004810B5154C3C
:1009500001220121200000F031FA002202212000B2
:1009600000F02CFA00220421200000F027FA0022D7
:100970000821200000F022FA00221021200000F0BF
:100980001DFA00222021200000F018FA0022402148
:10099000200000F013FA00228021200000F00EFA5F
:1009A00010BDC0460004004810B5154C00220121BE
:1009B000200000F003FA00220221200000F0FEF9DE
:1009C00000220421200000F0F9F900220821200073
:1009D00000F0F4F900221021200000F0EFF90022CD
:1009E0002021200000F0EAF900224021200000F040
:1009F000E5F900228021200000F0E0F910BDC0469A
:100A00000004004810B50A4B5B691B0700D410BDF9
:100A1000074A536908210B4353610120FFF774FD16
:100A20000448FFF765FD044BFA2252001A80EEE7F6
:100A300000040140581100080000002072B6FEE7D3
:100A400010B50C480C4B03600C4B436000238360D3
:100A50000B4AC260036143618033836100F0B8FADE
:100A6000002804D1074B802292031A6010BDFFF7C3
:100A7000E5FFC0462C000020004401403F1F00005D
:100A8000E703000000E100E010B51A4A13680121F5
:100A90008B431360174B1B68DB07FBD4164A1368A4
:100AA00001210B431360144B1B689B07FBD5124BB2
:100AB0001A68F8218A4378390A431A605A687031F3
:100AC0008A435A605A680D490A405A605A6803219D
:100AD0008A435A60084B5B680C221A42FAD10848D4
:100AE00000F0D2FA032000F0B9F8002800D110BDC0
:100AF000FFF7A4FF0020024000100240FFF8FFFFB4
:100B000000127A0010B500F0D1F8FFF7BDFFFFF733
:100B10007FFBFFF795FFFFF73FFBFFF78DFD012000
:100B2000FFF7F2FC1848FFF7E3FCFFF7CDFD174C89
:100B3000208800F0DDF8FFF7F5FD208800F0D8F8F8
:100B4000FFF71EFE208800F0D3F8FFF747FE20884D
:100B500000F0CEF8FFF770FE208800F0C9F8FFF72C
:100B600099FE208800F0C4F8FFF7C2FE208800F04C
:100B7000BFF8FFF7EBFE208800F0BAF8FFF714FF8C
:100B8000208800F0B5F8D0E76811000800000020C8
:100B9000FEE7FEE77047704710B500F097F810BD0C
:100BA0007047F0B5002216E00B699C46C4682B0024
:100BB0006B435E00F618F743B44366465E43344326
:100BC000C4604C68022C26D04D6804683C406B43DE
:100BD0002343036001320C682300D3403BD0012340
:100BE000934025001D401C42F4D04B68013B012B73
:100BF000DAD88F6883682C006C4366003619B343DB
:100C00007C43234383600E68CC684368B3437443DA
:100C100023434360C8E7FF2D0DD84C69A446066AFC
:100C20001C006C436C4325012D1BAE4365466C4391
:100C300034430462C8E74C69A446466A2D0A2C0076
:100C40006C436C436C4325012D1BAE4365466C43DE
:100C500034434462B8E70020F0BD000010B5040042
:100C60000F4B1978FA208000FFF72AFA01000D4B8C
:100C70001868FFF725FA00F09DF800280DD1032C25
:100C800001D901200AE0013000222100404200F099
:100C90008DF8054B1C60002000E0012010BDC0460F
:100CA00008000020040000200C00002010B5064AB7
:100CB000136810210B4313600320FFF7CFFF00F0F0
:100CC000B5F9002010BDC04600200240034A11685B
:100CD000034B1B785B1813607047C04674000020FC
:100CE00008000020014B18687047C04674000020BF
:100CF00070B50400FFF7F6FF0500631C02D0044B3B
:100D00001B78E418FFF7EEFF401BA042FAD370BD3A
:100D10000800002070B5002811DB8308134DC03394
:100D20009B005C5903221040C000FC321600864034
:100D3000B44389010A40824022435A5170BD0F23B7
:100D40000340083B9B0806339B00094A94466344D2
:100D50005C6803221040C000FC3215008540AC43A3
:100D600089010A40824022435A60E7E700E100E03F
:100D700000ED00E0013880235B0498420FD2094A5D
:100D800050600948036A1B021B0AC02109060B4375
:100D90000362002393600733136000207047012033
:100DA000FCE7C04610E000E000ED00E010B5FFF702
:100DB000B1FF10BD10B5FFF7DDFF10BD002A01D057
:100DC000816170478162FCE77047704770477047E8
:100DD000704710B50400026813699B070FD5D368EC
:100DE0009B070CD503235B4213610433037703682D
:100DF0009B699B0763D0FFF7E9FF002323772268F5
:100E000013695B0712D5D3685B070FD505235B42D7
:100E100013610733237723689A69C0239B001A4222
:100E200053D02000FFF7D2FF0023237722681369F5
:100E30001B0710D5D3681B070DD509235B4213612F
:100E40000D3323772368DB699B0745D02000FFF72C
:100E5000BDFF0023237722681369DB0612D5D36810
:100E6000DB060FD511235B42136119332377236807
:100E7000DA69C0239B001A4235D02000FFF7A6FF95
:100E80000023237722681369DB0702D5D368DB07C9
:100E900030D4226813691B0602D5D3681B0630D4F0
:100EA000226813695B0602D5D3685B0630D42268DA
:100EB00013699B0602D5D3689B0630D410BDFFF79B
:100EC00084FF2000FFF783FF97E72000FFF77DFFF7
:100ED0002000FFF77CFFA7E72000FFF776FF200048
:100EE000FFF775FFB5E72000FFF76FFF2000FFF762
:100EF0006EFFC5E702235B4213612000FFF764FF2A
:100F0000C7E781235B421361200000F08EF8C7E73A
:100F100041235B4213612000FFF75AFFC7E72123FB
:100F20005B421361200000F07FF8C7E70368214AA5
:100F3000904206D08022D205904202D01E4A9042B2
:100F400003D1702293434A6813431A4A904212D045
:100F50008022D20590420ED0174A90420BD0174AF9
:100F6000904208D0164A904205D0164A904202D0CC
:100F7000154A904203D1154A1A40CB681343802288
:100F800093434A69134303608B68C3620B688362AF
:100F9000084B984208D00A4B984205D0094B98421A
:100FA00002D0094B984201D10B69036301234361CD
:100FB0007047C046002C0140000400400020004063
:100FC000004001400044014000480140FFFCFFFF99
:100FD00070B5041E26D03D23C35C002B1CD03D25DC
:100FE00002236355210001C9FFF7A0FF0123462218
:100FF000A354083AA3540132A3540132A35401323A
:10100000A3540132A3540132A3540132A354013238
:10101000A3546355002070BD3C330022C25400F03D
:101020001DF8DCE70120F6E77047704782B00A4BF5
:10103000996901221143996199690A400092009AC5
:10104000DA69802149050A43DA61DB690B400193C3
:10105000019B02B07047C0460010024082B0026897
:10106000074B9A4201D002B07047064B9A69802123
:1010700089020A439A619B690B400193019BF2E745
:101080000044014000100240014B18607047C04608
:10109000040000200D488546FFF782FD0C480D49ED
:1010A0000D4A002302E0D458C4500433C4188C42C3
:1010B000F9D30A4A0A4C002301E013600432A24229
:1010C000FBD300F019F8FFF71DFDFEE7002000201C
:1010D00000000020100000207C11000810000020FB
:1010E00078000020FEE703008218934200D1704789
:1010F00019700133F9E7000070B500260C4C0D4D56
:10110000641BA410A64209D1002600F019F80A4C6D
:101110000A4D641BA410A64205D170BDB300EB5864
:1011200098470136EEE7B300EB5898470136F2E7EF
:101130007411000874110008781100087411000877
:10114000F8B5C046F8BC08BC9E467047F8B5C04626
:08115000F8BC08BC9E46704784
:101158006368616E6765642064656C61790000008E
:0C11680055706C6F616465642D300000F0
:0411740079010008F5
:041178005101000819
:10117C00E803000000127A000100000004000000E7
:04000005080010954A
:00000001FF
