:020000040800F2
:10000000002000200D100008090B00080B0B000851
:1000100000000000000000000000000000000000E0
:100020000000000000000000000000000D0B0008B0
:1000300000000000000000000F0B0008110B00087A
:100040005D1000085D1000085D1000085D100008DC
:100050005D1000085D1000085D1000085D100008CC
:100060005D1000085D1000085D1000085D100008BC
:100070005D1000085D1000085D1000085D100008AC
:100080005D1000085D100008000000005D10000811
:100090005D100008610600085D1000085D10000892
:1000A0005D1000085D1000085D1000085D1000087C
:1000B0005D100008000000005D1000080000000056
:1000C000002934D00123002210B488422CD301240B
:1000D0002407A14204D2814202D209011B01F8E7A0
:1000E000E400A14204D2814202D249005B00F8E759
:1000F000884201D3401A1A434C08A04202D3001B85
:100100005C0822438C08A04202D3001B9C082243B7
:10011000CC08A04202D3001BDC082243002803D0F5
:100120001B0901D00909E3E7100010BC704701B5B5
:10013000002000F00BF802BD0029F8D003B5FFF74E
:10014000C1FF0EBC4243891A1847C0467047C046DB
:1001500010B5064C2378002B07D1054B002B02D09D
:10016000044800E000BF0123237010BD0C000020F4
:1001700000000000B8100008044B10B5002B03D09D
:100180000349044800E000BF10BDC0460000000065
:1001900010000020B8100008F0B5DE4657464E4665
:1001A0004546E0B58BB004AC18220021200000F0D9
:1001B00056FF584B5A698021C9030A435A615A694C
:1001C0000A400392039A5A69802189020A435A61BC
:1001D0005A690A400292029A5A698021C9020A4366
:1001E0005A615B690B400193019B4B4E0127B7623B
:1001F00002239B46B36202339A46B36204339946A4
:10020000B3620833B3622022B2624021B16280201F
:10021000B062049727619025ED05A84621002800CB
:1002200000F07BFC5D460495002565602761210098
:10023000404600F072FC534604936560276121003C
:10024000404600F06AFC4B4604936560276121003C
:10025000404600F062FC04976760A560E560256198
:100260002100300000F059FC5B4604936760A560F4
:10027000E56025612100300000F04FFC53460493F7
:100280006760A560E56025612100300000F045FC55
:100290004B4604936760A560E5602561210030004E
:1002A00000F03BFC102304936760A560E5602561C6
:1002B0002100300000F031FC202204926760A5602C
:1002C000E56025612100300000F027FC4021049109
:1002D0006760A560E56025612100300000F01DFC2D
:1002E000802004906760A560E560256121003000F2
:1002F00000F013FC80239B000493656025612100BE
:10030000300000F00AFC0BB0F0BCBB46B246A94678
:10031000A046F0BD001002400004004882B0430037
:1003200018180023019304E0C046C046019B013326
:100330000193019B8342F7D302B0704770B514203C
:10034000FFF7ECFF0A4CA36980252D022B43A36124
:100350001420FFF7E3FFA26980231B061343A36168
:100360001420FFF7DBFFA3691D43A56170BDC046E4
:100370000008004810B50400454A91698023DB015C
:100380000B43936143B2002B46DB9022D205916967
:1003900080231B060B439361630645D59022D2054B
:1003A000916980235B010B439361A30644D5394ACD
:1003B000916980239B000B439361E30643D5354A43
:1003C000916980235B000B439361FFF7B7FF23071D
:1003D00040D59022D205916980231B020B43936183
:1003E00063073FD59022D205916980235B010B43BF
:1003F0009361A3073ED5274A916980239B000B4355
:100400009361E4073DD5234A916980235B000B4348
:100410009361FFF793FF10BD9022D205916980236D
:100420001B020B439361B7E79022D20591698023A9
:100430005B050B439361B8E7164A916980239B04DF
:100440000B439361B9E7134A916980235B040B4323
:100450009361BAE79022D205916980231B060B4372
:100460009361BDE79022D205916980235B050B4320
:100470009361BEE7074A916980239B040B43936114
:10048000BFE7044A916980235B040B439361C0E793
:10049000000800480004004870B50500002403E08F
:1004A000FFF768FF0134E4B2285D0028F8D170BD81
:1004B00010B50400474A91698023DB050B43936123
:1004C00043B2002B49DB9022D205916980231B06A1
:1004D0000B439361630648D59022D205916980232E
:1004E0005B010B439361A30647D53B4A9169802387
:1004F0009B000B439361E30646D5374A91698023FD
:100500005B000B439361FFF719FF230743D590224C
:10051000D205916980231B020B439361630742D587
:100520009022D205916980235B010B439361A3075D
:1005300041D5294A916980239B000B439361E407CD
:1005400040D5254A916980235B000B439361FFF7F7
:10055000F5FE2248FFF7E2FE10BD9022D205916918
:1005600080231B020B439361B4E79022D20591696B
:1005700080235B050B439361B5E7174A916980239C
:100580009B040B439361B6E7134A916980235B0494
:100590000B439361B7E79022D205916980231B0634
:1005A0000B439361BAE79022D205916980235B05E2
:1005B0000B439361BBE7084A916980239B040B437B
:1005C0009361BCE7044A916980235B040B43936108
:1005D000BDE7C0460008004800040048B80B000012
:1005E00010B51B4B5969802292020A435A6159691E
:1005F0008022D2020A435A615969802212030A43B7
:100600005A619022D20511688223DB050B431360E7
:10061000104A1168A023DB020B4313600E4A1168D5
:10062000A023DB050B4313600C48FFF777FE332054
:10063000FFF73EFF3220FFF73BFF0C20FFF738FFAC
:100640002820FFF735FF0120FFF732FF10BDC0461D
:100650000010024000040048000800483075000007
:1006600010B5024800F071FB10BDC0462800002004
:1006700010B5154C01220121200000F05BFB012286
:100680000221200000F056FB01220421200000F08E
:1006900051FB00220821200000F04CFB0122102118
:1006A000200000F047FB00222021200000F042FB48
:1006B00000224021200000F03DFB0122802120008B
:1006C00000F038FB10BDC0460004004810B5154CC2
:1006D00001220121200000F02DFB01220221200037
:1006E00000F028FB00220421200000F023FB01225F
:1006F0000821200000F01EFB00221021200000F045
:1007000019FB00222021200000F014FB01224021CF
:10071000200000F00FFB00228021200000F00AFBE7
:1007200010BDC0460004004810B5154C012201213F
:10073000200000F0FFFA00220221200000F0FAFA67
:1007400001220421200000F0F5FA002208212000F7
:1007500000F0F0FA00221021200000F0EBFA012254
:100760002021200000F0E6FA00224021200000F0C5
:10077000E1FA00228021200000F0DCFA10BDC04622
:100780000004004810B5154C00220121200000F0A3
:10079000D1FA01220221200000F0CCFA002204212B
:1007A000200000F0C7FA00220821200000F0C2FA61
:1007B00001221021200000F0BDFA0022202120009B
:1007C00000F0B8FA00224021200000F0B3FA002225
:1007D0008021200000F0AEFA10BDC04600040048A1
:1007E00010B5154C01220121200000F0A3FA0022CF
:1007F0000221200000F09EFA00220421200000F0D7
:1008000099FA01220821200000F094FA0022102118
:10081000200000F08FFA00222021200000F08AFA48
:1008200000224021200000F085FA002280212000D3
:1008300000F080FA10BDC0460004004810B5154C09
:1008400000220121200000F075FA00220221200080
:1008500000F070FA01220421200000F06BFA00225F
:100860000821200000F066FA00221021200000F08C
:1008700061FA00222021200000F05CFA00224021D1
:10088000200000F057FA00228021200000F052FAE8
:1008900010BDC0460004004810B5154C00220121CF
:1008A000200000F047FA01220221200000F042FA65
:1008B00000220421200000F03DFA0022082120003F
:1008C00000F038FA00221021200000F033FA002254
:1008D0002021200000F02EFA00224021200000F00C
:1008E00029FA00228021200000F024FA10BDC04621
:1008F0000004004810B5154C01220121200000F031
:1009000019FA00220221200000F014FA002204212A
:10091000200000F00FFA00220821200000F00AFA5F
:1009200000221021200000F005FA002220212000E2
:1009300000F000FA00224021200000F0FBF9002224
:100940008021200000F0F6F910BDC04600040048E8
:1009500010B5154C00220121200000F0EBF9002217
:100960000221200000F0E6F900220421200000F01E
:10097000E1F900220821200000F0DCF9002210211A
:10098000200000F0D7F900222021200000F0D2F949
:1009900000224021200000F0CDF90022802120001B
:1009A00000F0C8F910BDC0460004004872B6FEE76A
:1009B00010B50C480C4B03600C4B43600023836064
:1009C0000B4AC260036143618033836100F0BCFA6B
:1009D000002804D1074B802292031A6010BDFFF754
:1009E000E5FFC04628000020004401403F1F0000F2
:1009F000E703000000E100E010B51A4A1368012186
:100A00008B431360174B1B68DB07FBD4164A136834
:100A100001210B431360144B1B689B07FBD5124B42
:100A20001A68F8218A4378390A431A605A68703183
:100A30008A435A605A680D490A405A605A6803212D
:100A40008A435A60084B5B680C221A42FAD1084864
:100A500000F0D6FA032000F0BDF8002800D110BD48
:100A6000FFF7A4FF0020024000100240FFF8FFFF44
:100A700000127A0010B500F0D5F8FFF7BDFFFFF7C0
:100A80008BFBFFF795FFFFF7ABFD0120FFF710FD94
:100A90001B48FFF701FDFFF7EBFDFA24A40020003F
:100AA00000F0E2F8FFF712FE200000F0DDF8FFF79B
:100AB0003BFE200000F0D8F8FFF764FE200000F0B5
:100AC000D3F8FFF78DFE200000F0CEF8FFF7B6FE5A
:100AD000200000F0C9F8FFF7DFFE200000F0C4F8A6
:100AE000FFF708FF200000F0BFF8FFF731FF2000FC
:100AF00000F0BAF801220121024800F01BF9CAE710
:100B0000D010000800040048FEE7FEE77047704779
:100B100010B500F097F810BD7047F0B5002216E050
:100B20000B699C46C4682B006B435E00F618F743C4
:100B3000B44366465E433443C4604C68022C26D0FE
:100B40004D6804683C406B432343036001320C68EA
:100B50002300D3403BD00123934025001D401C427D
:100B6000F4D04B68013B012BDAD88F6883682C00E6
:100B70006C4366003619B3437C43234383600E689D
:100B8000CC684368B343744323434360C8E7FF2DF5
:100B90000DD84C69A446066A1C006C436C432501C1
:100BA0002D1BAE4365466C4334430462C8E74C6971
:100BB000A446466A2D0A2C006C436C436C43250105
:100BC0002D1BAE4365466C4334434462B8E70020B6
:100BD000F0BD000010B504000F4B1978FA2080001A
:100BE000FFF76EFA01000D4B1868FFF769FA00F085
:100BF0009DF800280DD1032C01D901200AE0013015
:100C000000222100404200F08DF8054B1C600020BE
:100C100000E0012010BDC0460400002000000020BC
:100C20000800002010B5064A136810210B4313601A
:100C30000320FFF7CFFF00F0B5F9002010BDC0463C
:100C400000200240034A1168034B1B785B181360B5
:100C50007047C0467000002004000020014B186857
:100C60007047C0467000002070B50400FFF7F6FF23
:100C70000500631C02D0044B1B78E418FFF7EEFF5D
:100C8000401BA042FAD370BD0400002070B50028BC
:100C900011DB8308134DC0339B005C5903221040C5
:100CA000C000FC3216008640B44389010A408240ED
:100CB00022435A5170BD0F230340083B9B08063363
:100CC0009B00094A944663445C6803221040C000BC
:100CD000FC3215008540AC4389010A408240224322
:100CE0005A60E7E700E100E000ED00E00138802312
:100CF0005B0498420FD2094A50600948036A1B02FC
:100D00001B0AC02109060B430362002393600733CB
:100D10001360002070470120FCE7C04610E000E0AF
:100D200000ED00E010B5FFF7B1FF10BD10B5FFF703
:100D3000DDFF10BD002A01D0816170478162FCE7B0
:100D40007047704770477047704710B504000268DD
:100D500013699B070FD5D3689B070CD503235B4210
:100D600013610433037703689B699B0763D0FFF724
:100D7000E9FF00232377226813695B0712D5D36844
:100D80005B070FD505235B42136107332377236885
:100D90009A69C0239B001A4253D02000FFF7D2FF6C
:100DA00000232377226813691B0710D5D3681B071C
:100DB0000DD509235B4213610D3323772368DB696B
:100DC0009B0745D02000FFF7BDFF00232377226853
:100DD0001369DB0612D5D368DB060FD511235B42FE
:100DE0001361193323772368DA69C0239B001A4201
:100DF00035D02000FFF7A6FF002323772268136970
:100E0000DB0702D5D368DB0730D4226813691B06E1
:100E100002D5D3681B0630D4226813695B0602D55D
:100E2000D3685B0630D4226813699B0602D5D36869
:100E30009B0630D410BDFFF784FF2000FFF783FF2F
:100E400097E72000FFF77DFF2000FFF77CFFA7E773
:100E50002000FFF776FF2000FFF775FFB5E72000C1
:100E6000FFF76FFF2000FFF76EFFC5E702235B422D
:100E700013612000FFF764FFC7E781235B42136122
:100E8000200000F08EF8C7E741235B421361200089
:100E9000FFF75AFFC7E721235B421361200000F0F0
:100EA0007FF8C7E70368214A904206D08022D20526
:100EB000904202D01E4A904203D1702293434A6866
:100EC00013431A4A904212D08022D20590420ED08B
:100ED000174A90420BD0174A904208D0164A9042C7
:100EE00005D0164A904202D0154A904203D1154AC5
:100EF0001A40CB681343802293434A69134303602B
:100F00008B68C3620B688362084B984208D00A4B17
:100F1000984205D0094B984202D0094B984201D122
:100F20000B690363012343617047C046002C0140F5
:100F30000004004000200040004001400044014007
:100F400000480140FFFCFFFF70B5041E26D03D2382
:100F5000C35C002B1CD03D2502236355210001C931
:100F6000FFF7A0FF01234622A354083AA3540132FD
:100F7000A3540132A3540132A3540132A3540132C9
:100F8000A3540132A3540132A3546355002070BD11
:100F90003C330022C25400F01DF8DCE70120F6E7E4
:100FA0007047704782B00A4B9969012211439961D9
:100FB00099690A400092009ADA69802149050A433A
:100FC000DA61DB690B400193019B02B07047C046B8
:100FD0000010024082B00268074B9A4201D002B072
:100FE0007047064B9A69802189020A439A619B697E
:100FF0000B400193019BF2E70044014000100240C6
:10100000014B18607047C046000000200D4885461F
:10101000FFF782FD0C480D490D4A002302E0D45829
:10102000C4500433C4188C42F9D30A4A0A4C002332
:1010300001E013600432A242FBD300F019F8FFF77D
:1010400019FDFEE700200020000000200C00002019
:10105000E01000080C00002074000020FEE70300F0
:101060008218934200D1704719700133F9E70000EC
:1010700070B500260C4C0D4D641BA410A64209D17E
:10108000002600F019F80A4C0A4D641BA410A64271
:1010900005D170BDB300EB5898470136EEE7B300B9
:1010A000EB5898470136F2E7D8100008D81000082E
:1010B000DC100008D8100008F8B5C046F8BC08BC21
:1010C0009E467047F8B5C046F8BC08BC9E467047BF
:0810D00074657374696E67001A
:0410D8007901000892
:0410DC0051010008B6
:0C10E00000127A00010000000400000073
:040000050800100DD2
:00000001FF
